:0600000000F067EF00F0C4
:08000800FFFF5782BBEF01F07E
:10001800FFFF5780D8CF0FF0E8CF10F0E0CF11F0F6
:10002800FACF12F0FBCF13F0E9CF14F0EACF15F0B6
:10003800E1CF16F0E2CF17F0D9CF18F0DACF19F0E8
:10004800F3CF1AF0F4CF1BF0F6CF1CF0F7CF1DF06A
:10005800F8CF1EF0F5CF1FF09EA002D0362A372A1F
:10006800FFFF9E909E0ECF6E570ECE6E1E0E36640C
:1000780004D0ACEC03F0000E366EFFFF1FC0F5FF96
:100088001EC0F8FF1DC0F7FF1CC0F6FF1BC0F4FF21
:100098001AC0F3FF19C0DAFF18C0D9FF17C0E2FF72
:1000A80016C0E1FF15C0EAFF14C0E9FF13C0FBFF4B
:1000B80012C0FAFF11C0E0FF10C0E8FF0FC0D8FF60
:1000C80057901000FFFF7AEF03F0FFFF54EC02F0A7
:1000D800BFEC02F032EC03F04AEC03F0FE0E216EA6
:1000E800FF0E8BEC02F0336E32EC03F04AEC03F0B7
:1000F800FD0E216EFF0E8BEC02F0326E3328D8A471
:1001080007D03228D8A404D0000E336E000E326E09
:10011800FFFFF28EFFFF81AA85EC03F0190E396408
:10012800F9D7F29E000E396E000E246E080E236E6B
:10013800000E266E000E256E3D0E276E000E286EF0
:10014800ECEC02F03C6E000E246E180E236E000ECE
:10015800266E100E256E3D0E276E000E286EECECF6
:1001680002F03B6E000E246E100E236E000E266EFB
:10017800080E256E3D0E276E000E286EECEC02F080
:100188003A6EF28E13EC01F082B42BD03850D8A41A
:1001980028D032EC03F04AEC03F032C021F03CC026
:1001A80022F03AC023F03BC024F0335016EC02F0A2
:1001B8003250030F326E3228D8A403D0000E326EAC
:1001C800332AFFFF32EC03F04AEC03F0FD0E216EF8
:1001D80032C022F033C023F0000E246EFF0E16EC5E
:1001E80002F0FFFF3804D8B485EC03F03850D8B4D7
:1001F8009AEC03F0000E376E03D0FFFF000E396E45
:10020800FFFF010E3764F9D7000E386E000E3C6E02
:10021800000E3B6E000E3A6E000E396E7BD7FFFF64
:10022800F29E000E276E000E296E000E286E000E3C
:10023800386E87D0FFFF32EC03F04AEC03F0B5ECE0
:1002480003F06DEC03F0A00EC96EFFFFC7B0FDD739
:100258006DEC03F027C0C9FFFFFFC7B0FDD76DECF9
:1002680003F028C0C9FFFFFFC7B0FDD76DEC03F04E
:10027800BDEC03F0A10EC96EFFFFC7B0FDD76DEC52
:1002880003F0C59A000E266E000E256EFFFF26BEEF
:1002980006D026503FE1800E255CD8B03BD0FFFF4A
:1002A800C586FFFFC7B0FDD7FFFFC5B6FDD7C9CFCD
:1002B80031F0C588FFFFC5B8FDD7C586FFFFC7B0B9
:1002C800FDD7FFFFC5B6FDD7C9CF30F0C588FFFF02
:1002D800C5B8FDD7C586FFFFC7B0FDD7FFFFC5B6B8
:1002E800FDD7C9CF2FF03C503118D8A40BD03A50C5
:1002F8003018D8A407D03B502F18D8A403D0010E2B
:10030800386E08D0FFFFC588FFFFC5B8FDD7254A5E
:10031800262ABCD7FFFF800E2824286E000E29202D
:10032800296E29042810D8A405D0000E296E000EC5
:10033800286E272AFFFFA3EC03F0C59A3804D8B427
:1003480012D0FFFF2750335CD8A00DD03250226E58
:10035800236A2850225C2350800A246E2950800A80
:100368002458D8B067D7FFFFF28E1200FFFFFFFFB7
:10037800FACF01F0FBCF02F0E9CF03F0EACF04F0A7
:10038800E1CF05F0E2CF06F0D9CF07F0DACF08F0D9
:10039800F3CF09F0F4CF0AF0F6CF0BF0F7CF0CF05B
:1003A800F8CF0DF0F5CF0EF0F2A20CD0F292395042
:1003B800010D3D0EF324D96E000EF420DA6E000E06
:1003C800DF6E392AFFFFF0A00CD0F0903950010DF4
:1003D8003D0EF324D96E000EF420DA6E010EDF6EA6
:1003E800392AFFFF0EC0F5FF0DC0F8FF0CC0F7FF5C
:1003F8000BC0F6FF0AC0F4FF09C0F3FF08C0DAFF1C
:1004080007C0D9FF06C0E2FF05C0E1FF04C0EAFF4C
:1004180003C0E9FF02C0FBFF01C0FAFF57921100B9
:10042800FFFFFFFFFFFF256EF29EB5EC03F06DECBA
:1004380003F0A00EC96EFFFFC7B0FDD760EC03F054
:100448006DEC03F025C0C9FFFFFFC7B0FDD760EC16
:1004580003F06DEC03F021C0C9FFFFFFC7B0FDD763
:1004680060EC03F06DEC03F022C0C9FFFFFFC7B0DA
:10047800FDD760EC03F06DEC03F023C0C9FFFFFF6C
:10048800C7B0FDD760EC03F06DEC03F024C0C9FFE2
:10049800FFFFC7B0FDD790EC03F0F28E1200FFFF0C
:1004A800FFFFC290070EC16E92948084929693804B
:1004B8009382939493969398938A81869484969042
:1004C80096929694F28ED08EF28EF28CF28CF08CFC
:1004D800F19CF19AF292F090F288F0869D809F90BC
:1004E800CD92CD88CD8A000ECF6E000ECE6E9E9036
:1004F800CD80280EC66E000EC56E800EC76E010E2A
:10050800C86E94889486C59CC69E1200FFFFFFFFA4
:10051800226EF29EB5EC03F06DEC03F0A00EC96EEE
:10052800FFFFC7B0FDD76DEC03F022C0C9FFFFFF86
:10053800C7B0FDD76DEC03F021C0C9FFFFFFC7B0FE
:10054800FDD76DEC03F0BDEC03F0A10EC96EFFFF03
:10055800C7B0FDD76DEC03F0C58AC586FFFFC7B0ED
:10056800FDD7FFFFC5B6FDD7A3EC03F0C59AF28E01
:10057800C9501200FFFFFFFF000E206EFFFF020EA2
:10058800206401D019D0FFFF80868484848284800F
:10059800000E376EFFFF010E3764FCD780968494F7
:1005A80084928490000E376EFFFF010E3764FCD7EB
:1005B800000E376E202AE2D7FFFF000E376EFFFFCE
:1005C800050E3764FCD79AEC03F084801200FFFF15
:1005D800FFFF000E2A6E000E2D6E23C02BF024C0E4
:1005E8002CF014D0FFFF2B502724D96E2C50282034
:1005F800DA6EDE04D8A405D02A5018EC03F02D24B6
:100608002D6EFFFF2A2A2B06D8A02C06FFFF2B50A1
:10061800255C2650800A296E2C50800A2958D8A0BB
:10062800E1D72D501200FFFFFFFF226E2250D8A401
:1006380002D0010E10D0FFFF22C020F0FF0E2026AE
:10064800020E216E202A03D0FFFFD8902136FFFF2B
:10065800202EFAD72150FFFF1200FFFFFFFFB5EC55
:1006680003F06DEC03F0A00EC96EFFFFC7B0FDD715
:100678006DEC03F090EC03F0C5AC02D0010E02D093
:10068800FFFF000EFFFF356E1200FFFFFFFF35046E
:10069800D8A40FD0000E216EFFFF630E216401D095
:1006A80008D0FFFF32EC03F03550D8B402D0212A2D
:1006B800F3D7FFFF1200FFFFFFFF000E356EC5BC2A
:1006C80002D0000E02D0FFFF010EFFFF356E1200B0
:1006D800FFFFFFFFFFFFC7B4FDD7C5CF20F01F0EF8
:1006E8002016D8B41200FFFFF5D7FFFF00EE2EF05A
:1006F800290EEE6AE806FDE157905792000169EF6E
:1007080000F0FFFF000E366E8492848480948096F9
:10071800819481981200FFFFFFFF6DEC03F0C58400
:10072800FFFFC5A41200FFFFFBD7FFFFFFFF848276
:10073800849480848096818481881200FFFFFFFF63
:10074800C58AC588FFFFC5A81200FFFFFBD7FFFFBA
:10075800FFFF84828494808480968184818812003B
:10076800FFFFFFFFC580FFFFC5A01200FFFFFBD7FB
:10077800FFFFFFFFC582FFFFC5A21200FFFFFBD7E7
:04078800FFFFFFFF71
:020000040020DA
:08000000FFFFFFFFFFFFFFFF00
:020000040030CA
:0E000000FF220F0EFF0081FF0FC00FE00F4028
:00000001FF
